:020000040000FA
:06000000ACEF2EF012002F
:0600080004EF08F01200F5
:060018000CEF08F01200DD
:06100000ACEF2EF012001F
:021006001200D6
:0610080068EF26F0120063
:02100E00D59E6D
:04101000F29A12003E
:021014001200C8
:06101800C0EF26F01200FB
:02101E000300CD
:10102000DD5D0000AC05000033000000D75D00006E
:101030009800000006000000BB5D0000DF05000016
:041040001C00000090
:0C104400D9CFE6FFE1CFD9FFE652A3941C
:10105000676A656A6A6A010EE66EE66AE66A6B0EA0
:10106000E66E0F0EE66EA4EC2AF0006E050EE15E51
:101070000050160E626E9F0E666E7B0E646EDF6A07
:10108000DF50006E016A080E005C000E015810E28D
:10109000DF50040DF3CFE9FFF4CFEAFF000EE9269D
:1010A000040EEA22EE6AEE6AEE6AEE6ADF2AE8D7FA
:1010B000608C636A6098609C65A607D065960001A5
:1010C000736B786B796B7A6BF7D70001010E8A6FBF
:1010D0008B6F8C6B8D6B806BDF6A020EDF5C26E2A0
:1010E000EA6ADF34FE0BEA36E96E6B0EE926000E83
:1010F000EA22EE6AED6AEA6ADF34FE0BEA36E96E4E
:10110000670EE926000EEA22EE6AED6ADF50EA6A0F
:10111000840FE96E000EEA22EF6ADF50EA6A860F5A
:10112000E96E000EEA22EF6ADF2AD7D70001080E27
:101130006B6F040E6C6F160E6A6E0401200E026F48
:10114000040E036F080E016F840E006F0001616BC7
:10115000606BE552E552E7CFD9FF1200D9CFE6FF29
:10116000E1CFD9FFE6520001600507E160BA05D082
:10117000656A64806488020E606F6550040B06E047
:101180006450040B03E0659494EC0EF060B259D007
:101190006550010B09E06450010B06E053DFA384A6
:1011A0000001040E606F65906550100B06E06450FE
:1011B000100B03E07FEC0EF0659865AC19D064ACC1
:1011C0000FD0010EE66EE66A000EE66EE66A730E5A
:1011D000E66EE66A6FEC28F0006E060EE15E0050E7
:1011E000659C0001885101E08807885101E1FBD925
:1011F0006550200B05E06450200B02E066EC0EF019
:101200006550020B13E06450020B10E0010EE66E15
:10121000E66A000EE66EE66AE6687F0EE66E6FEC42
:1012200028F0006E060EE15E0050676A040E0001B1
:10123000E76E6019E8AE02D0E73402D0E750605D97
:1012400002E2A49439D064A636D0DF6A040EDF5CD3
:1012500032E265A630D061CF81F000018151780B78
:10126000E842E842E842826F659681B506D0825135
:10127000EA6A860FE96E000E05D08251EA6A840F91
:10128000E96E000EEA22EF70825103E1ABEC0EF042
:1012900010D0000EE66EE66A810EE66E000EE66E77
:1012A000720EE66EE66A6FEC28F0006E060EE15EE6
:1012B0000050DF2ACBD7A494E552E552E7CFD9FFFF
:1012C0001200D9CFE6FFE1CFD9FF020EE126FD0ED5
:1012D000DBA407D0E66AFE0EDBCFE6FF13DAE552A9
:1012E000E552FD0EDBA208D0010EE66EFE0EDBCF4E
:1012F000E6FF08DAE552E552FE0EDB50016A6A0F9E
:10130000006E0F0E012200C0DEFF01C0DDFFDECF48
:10131000E9FFDDCFEAFFFD0EDBCFEFFF020EE15C60
:1013200002E2E16AE552E16EE552E7CFD9FF120031
:10133000D9CFE6FFE1CFD9FF020EE126FD0EDB504B
:101340000AE0FE0EEA6ADB34FE0BEA36E96E6B0E4B
:10135000E926000E09D0FE0EEA6ADB34FE0BEA36FF
:10136000E96E670EE926000EEA22EECFDEFFEDCF32
:10137000DDFFD9CFE9FFDACFEAFFEE50ED1003E150
:10138000F36AF46A44D0DECFE9FFDDCFEAFF020E54
:10139000E926000EEA22FB0EDBCFEEFFFC0EDBCFD0
:1013A000EDFFDECFE9FFDDCFEAFFEE52FA0EDBCF35
:1013B000EFFF400EDECFE9FFDDCFEAFFE850EF168A
:1013C000880EDECFE9FFDDCFEAFFE850EF12FD0E19
:1013D000DB500AE0FE0EEA6ADB34FE0BEA36E96E09
:1013E0006B0EE926000E09D0FE0EEA6ADB34FE0B16
:1013F000EA36E96E670EE926000EEA22EF74DECFC8
:1014000000F0DDCF01F000C0F3FF01C0F4FF020ED9
:10141000E15C02E2E16AE552E16EE552E7CFD9FF15
:101420001200D9CFE6FFE1CFD9FF020EE126FE0E72
:10143000DB5020E165C0E9FF66C0EAFFEE52080E0E
:10144000EF6E65C0E9FF66C0EAFF020EE926000EF6
:10145000EA22200EEE6E040EED6E65C0E9FF66C056
:10146000EAFF8C0EEF6E6BC0E9FF6CC0EAFF840EE2
:10147000EF6E3BD0FD0EDB50E824026EFE0EDB501B
:10148000040DF3500224040DF3CF00F0F4CF01F06B
:10149000000E0026040E012200C0DEFF01C0DDFFA9
:1014A000840EDECFE9FFDDCFEAFFE850EF12FD0E3C
:1014B000DB50E824026EFE0EDB50040DF3500224D4
:1014C000010F040DF3CF00F0F4CF01F0000E002661
:1014D000040E012200C0DEFF01C0DDFF840EDECF5E
:1014E000E9FFDDCFEAFFE850EF12020EE15C02E215
:1014F000E16AE552E16EE552E7CFD9FF1200D9CF9C
:10150000E6FFE1CFD9FF60A84ED0FE0EEA6ADB34D9
:10151000FE0BEA36E96E6B0EE926000EEA22EE506B
:10152000EFCFEAFFE96E400EEE16EE6AEE6AEE6A63
:10153000FE0EEA6ADB34FE0BEA36E96E6B0EE92634
:10154000000EEA22EE50EFCFEAFFE96EEE7CFE0ECF
:10155000EA6ADB34FE0BEA36E96E6B0EE926000E12
:10156000EA22EF74400E006EFE0EEA6ADB34FE0BD8
:10157000EA36E96E6B0EE926000EEA22EE50EFCF56
:10158000EAFFE96E0050EF16FE0EEA6ADB34FE0B4E
:10159000EA36E96E6B0EE926000EEA22EE50EFCF36
:1015A000EAFFE96EEF7CE552E7CFD9FF1200606AEF
:1015B000646A0001606B12000001605113E1606A0F
:1015C000646A160E626E9F0E666E7B0E646ED08E1F
:1015D000A584A384F28E60B602D06086FCD7000199
:1015E000010E606F120000018A514DE1010E8A6FF9
:1015F0008B5149E1010E8B6F020E705D0DE16BC0E6
:10160000E9FF6CC0EAFFEE52EF6A6BC0E9FF6CC005
:10161000EAFFC80EEF6E1200700535E1836B63C000
:10162000E9FF64C0EAFFEE52080EEF6E63C0E9FF07
:1016300064C0EAFF020EE926000EEA22200EEE6EDA
:10164000040EED6E63C0E9FF64C0EAFF840EEF6E26
:10165000010E836F65C0E9FF66C0EAFFEE52080E17
:10166000EF6E65C0E9FF66C0EAFF020EE926000ED4
:10167000EA22200EEE6E040EED6E65C0E9FF66C034
:10168000EAFF800EEF6E120000018C6B8D6B020E74
:10169000705D18E165C0E9FF66C0EAFFEE52080E12
:1016A000EF6E65C0E9FF66C0EAFF020EE926000E94
:1016B000EA22280EEE6E040EED6E65C0E9FF66C0EC
:1016C000EAFF1DD074510401265D0001755104012B
:1016D000275904E226C474F027C475F0CAD86BC039
:1016E000E9FF6CC0EAFF020EE926000EEA22280E8E
:1016F000EE6E040EED6E6BC0E9FF6CC0EAFFC80E23
:10170000EF6E1200D9CFE6FFE1CFD9FF020EE1263E
:10171000000EDE6E040EDD6EFD0EDB50E824026E60
:10172000FE0EDB50040DF3500224040DF4CF01F043
:10173000D9CFE9FFDACFEAFFF350EE260150ED22D0
:10174000DECFE9FFDDCFEAFFEF9EFD0EDB500AE1C1
:10175000FE0EEA6ADB34FE0BEA36E96E670EE92616
:10176000000E09D0FE0EEA6ADB34FE0BEA36E96EA3
:101770006B0EE926000EEA22DECFEEFFDDCFEDFF95
:10178000DECFE9FFDDCFEAFFEF9CDECFE9FFDDCF63
:10179000EAFF040EE926000EEA22EF8C020EE15C5D
:1017A00002E2E16AE552E16EE552E7CFD9FF1200AD
:1017B0006098000173BF2BD078AF09D0020E706F14
:1017C0008D5101E161DF00018B6B8A6B120065C0F6
:1017D000E9FF66C0EAFFEE52080EEF6E65C0E9FF52
:1017E00066C0EAFF020EE926000EEA22200EEE6E27
:1017F000040EED6E65C0E9FF66C0EAFF8C0EEF6E69
:101800006BC0E9FF6CC0EAFF840EEF6E12000401AA
:1018100020AF0DD00001010E706F8C5101E134DF5B
:1018200000018B6B8A6B895123E1F3EF0AF0000111
:10183000020E706F65C0E9FF66C0EAFFEE52080E47
:10184000EF6E65C0E9FF66C0EAFF020EE926000EF2
:10185000EA22200EEE6E040EED6E65C0E9FF66C052
:10186000EAFF840EEF6E8B6B8A6B895101E1BBDE60
:101870001200D9CFE6FFE1CFD9FFE652080EDF6EA6
:101880000001745D000E75590AE274C0DFFF6F51EC
:1018900002E1010E03D06F0502E1020E6F6FDF500F
:1018A000016AE850745D746F01507559756F6BC0B3
:1018B000E9FF6CC0EAFFEE52DFCFEFFF280E7D6F2D
:1018C000040E7E6F73B118D0DF502DE071C0F6FFAB
:1018D00072C0F7FF712B000E72230800F550E66E00
:1018E0007DC0E9FF7EC0EAFF7D2B000E7E23E5521E
:1018F000E750EF6EDF06E8D7DF5015E071C0E9FF73
:1019000072C0EAFF712B000E7223EF50E66E7DC0AD
:10191000E9FF7EC0EAFF7D2B000E7E23E552E750F3
:10192000EF6EDF06E9D7E552E552E7CFD9FF1200A7
:10193000D9CFE6FFE1CFD9FF020EE12663C0E9FF70
:1019400064C0EAFFEE52EFCFDFFFDFCF00F00050C0
:101950000001795D000E7A5902E279C0DFFFDF50A5
:10196000006E016AE850795D796F01507A597A6F9B
:10197000010EDB6ADF50F36E010EDBCFF4FFF35094
:10198000F45C16E2010EDB50EA6A280FE96E040EE1
:10199000EA22EF50E66E76C0E9FF77C0EAFF762BC9
:1019A000000E7723E552E750EF6E010EDB2AE2D7F7
:1019B000000ED8807955000E7A5527E265C0E9FF00
:1019C00066C0EAFFEE52080EEF6E65C0E9FF66C022
:1019D000EAFF020EE926000EEA22280EEE6E040E41
:1019E000ED6E63C0E9FF64C0EAFFEF50400B06E113
:1019F00065C0E9FF66C0EAFFC80E05D065C0E9FF13
:101A000066C0EAFF880EEF6E28D065C0E9FF66C0A9
:101A1000EAFFEE52080EEF6E65C0E9FF66C0EAFF0E
:101A2000020EE926000EEA22200EEE6E040EED6E86
:101A300065C0E9FF66C0EAFF840EEF6E7B517C1142
:101A400007E005D07CC0FAFF00017B51F96EFADF98
:101A50000001789F895101E1C6DD020EE15C02E2DE
:101A6000E16AE552E16EE552E7CFD9FF1200D9CF26
:101A7000E6FFE1CFD9FFE6520001738F010EE66E5B
:101A8000E66AE66A6B0EE66E0F0EE66EA4EC2AF0CE
:101A9000006E050EE15E0050200EE66EE66AE66A14
:101AA000000EE66E040EE66EA4EC2AF0006E050E43
:101AB000E15E0050608CDF6A020EDF5C10E2DF50F6
:101AC000EA6A840FE96E000EEA22EF6ADF50EA6AE2
:101AD000860FE96E000EEA22EF6ADF2AEDD7010ECB
:101AE000E66EE66AE66A620EE66E000EE66EA4EC4C
:101AF0002AF0006E050EE15E0050609C0001080EA9
:101B00006B6F040E6C6F000E636F040E646F63C026
:101B100065F0666F22C461F0615102E1100E12D0CF
:101B2000010EE66EE66A610EE66E000EE66E010ECE
:101B3000E66EE66A6FEC28F0006E060EE15E00507D
:101B40000001200E606FE552E552E7CFD9FF120089
:101B5000800E0401205D58E10001C00E736F040186
:101B60002351030A2FE0010A09E0030A4BE10001B7
:101B7000E20E716F550E726F120E3ED02251F66E4C
:101B8000F76AD890F636F7369F0EF626560EF722ED
:101B90000900F5CF71F00A00F5CF72F0020E0001D6
:101BA000F76A7125F66E7251F7220800F5CF74F0CE
:101BB000030EF76A7125F66E7251F7220800F5CF11
:101BC00075F01200030E225D1AE22251F66EF76ADA
:101BD000D890F636F736A10EF626560EF7220900F3
:101BE000F5CF71F00A00F5CF72F071C0F6FF72C048
:101BF000F7FF0800F5500001746F756B12000001CB
:101C0000736B12000001736B1200D9CFE6FFE1CFB6
:101C1000D9FF020EE1260401286B296B20511F0B0E
:101C2000020A11E0030A0CE0010A3CE10001738F93
:101C30000401288100017F0535E10401288332D0A9
:101C40000001738F2FD00001738F040124BF0BD0CC
:101C500024510F0BE96EEA6AD890E936EA36670E2E
:101C6000E926000E0AD024510F0BE96EEA6AD890DB
:101C7000E936EA366B0EE926000EEA22EECFDEFFE9
:101C8000EDCFDDFFDECFE9FFDDCFEAFFEF50800BC8
:101C900009E0DECFE9FFDDCFEAFFEF50040B02E001
:101CA000010E286F000173AF07D0280E716F040E6C
:101CB000726F7381020E746F020EE15C02E2E16AE0
:101CC000E552E16EE552E7CFD9FF12006AA015D0C8
:101CD00063C0E9FF64C0EAFFEF5080080DE16BC00C
:101CE000E9FF6CC0EAFFEF50840806E163C0E9FF3A
:101CF00064C0EAFF8C0EEF6E6A90659A12006484ED
:101D0000659860820001010E806F000EE66EE66A43
:101D1000E66EE66A750EE66EE66A6FEC28F0006E17
:101D2000060EE15E005012000001806B000EE66EB0
:101D3000E66AE66EE66A740EE66EE66A6FEC28F016
:101D4000006E060EE15E00506092649465A402D0BD
:101D50006594FCD71200D9CFE6FFE1CFD9FFE65258
:101D600000012D0E886FFD0E811553E17E0E811549
:101D7000E8407F0B040DF3CF63F0F4CF64F0000E66
:101D80006327040E642363C065F064C066F0657564
:101D900063C0E9FF64C0EAFFEF503C0BE842E84251
:101DA0000D0835E1DF6A080EDF5C23E263C0E9FF5E
:101DB00064C0EAFF020EE926000EEA22EE50EFCFE1
:101DC000EAFFE96EEF50E66EDF50EA6A200FE96E37
:101DD000040EEA22E552E750EF6E63C0E9FF64C0EB
:101DE000EAFF020EE926000EEA22EE2AEF22DF2A9F
:101DF000DAD763C0E9FF64C0EAFF020EE926000EED
:101E0000EA22200EEE6E040EED6E0DD807D03AD801
:101E100005D0FD0E8115040801E159D8E552E552BF
:101E2000E7CFD9FF120000016F6B896B8C6B8D6B54
:101E3000836B706B6BC0E9FF6CC0EAFFEF9E6B7544
:101E40006BC0E9FF6CC0EAFFEF9E6B7565C0E9FFF0
:101E500066C0EAFFEF9E736B746B756B786B796B82
:101E60007A6B8CD8000EE66EE66AE66EE66A030EC2
:101E7000E66EE66A6FEC28F0006E060EE15E00503A
:101E8000D8EF0BF0020E0001705D02E198EF0CF04C
:101E9000706B83511AE165C0E9FF66C0EAFFEE523C
:101EA000080EEF6E65C0E9FF66C0EAFF020EE92684
:101EB000000EEA22200EEE6E040EED6E65C0E9FF04
:101EC00066C0EAFF8C0EEF6E1200836B1200D9CF52
:101ED000E6FFE1CFD9FFE6526BC0E9FF6CC0EAFF35
:101EE000EF50400B01E0010EDF6E00016B75080E34
:101EF000605D08E122C463FF635002E0100E01D070
:101F0000040E606F700526E16BC0E9FF6CC0EAFF4C
:101F1000020EE926000EEA22280EEE6E040EED6E89
:101F2000A8DC020E00016F5D06E16BC0E9FF6CC02A
:101F3000EAFF840E0DD0DF5006E16BC0E9FF6CC0F4
:101F4000EAFFC80E05D06BC0E9FF6CC0EAFF880E3F
:101F5000EF6E0FD078AF0CD07B517C1107E005D02D
:101F60007CC0FAFF00017B51F96EFADF0001789F17
:101F7000706BE552E552E7CFD9FF12000401205102
:101F8000600BE842E842E842E842E842000901E02A
:101F9000120021510C0A50E00B0A3FE00C0A31E01C
:101FA000010A22E00B0A1EE0020A1CE0030A18E004
:101FB000080A10E0010A0CE00F0A08E0030A01E039
:101FC00012000001738F080E606F1200A8EF0DF071
:101FD00037EF0DF00001610E716F000E726F0CD0C3
:101FE00005EF0EF01DEF10F024510001716F726BC0
:101FF000620E7127000E72237381010E746F738F4E
:1020000012000001738F04012451EA6A620FE96E25
:10201000000EEA2222C4EFFF1200000EE66EE66A0E
:10202000E66EE66A020EE66EE66A6FEC28F0006E77
:10203000060EE15E005012001200D9CFE6FFE1CF9C
:10204000D9FF050EE1260401220510E120511F0BE6
:1020500000090CE10001738F030E0401215D04E10E
:102060000001010E7F6F02D000017F6B040122513D
:1020700001E011D120511F0B020801E00CD12451C5
:102080000F0B000901E107D124510F0B010801E2F8
:1020900002D1200E0001605D01E0FDD0738F0401CC
:1020A00024BF16D024510F0BE96EEA6AD890E936A6
:1020B000EA36670EE926000EEA22EECFDEFFEDCF0C
:1020C000DDFF24510F0BEA6A860FE96E000E15D072
:1020D00024510F0BE96EEA6AD890E936EA366B0EA6
:1020E000E926000EEA22EECFDEFFEDCFDDFF245120
:1020F0000F0BEA6A840FE96E000EEA22020EEFCFA0
:10210000DBFFD950020FE96EDACFEAFFEF50010B87
:1021100003E1000EDF9401D0DF8424BF0BD02451F3
:102120000F0BE96EEA6AD890E936EA36670EE926BF
:10213000000E0AD024510F0BE96EEA6AD890E936F6
:10214000EA366B0EE926000EEA22DECFEEFFDDCF87
:10215000EDFF030E215D20E1DECFE9FFDDCFEAFFD9
:10216000EF50800B11E024BF07D024510F0BEA6A17
:10217000860FE96E000E06D024510F0BEA6A840F19
:10218000E96E000EEA22EF82840EDECFE9FFDDCF9A
:10219000EAFFE850EF127FD0DF74DECFE9FFDDCF3A
:1021A000EAFFEF50800B1BE0DECFE9FFDDCFEAFF57
:1021B000EF9EDECFE9FFDDCFEAFFEF8C020EE66E89
:1021C000E66ADECFE6FFDDCFE6FF050EE66EE66AE5
:1021D0006FEC28F0006E060EE15E005005D0DECFF9
:1021E000E9FFDDCFEAFFEF8CDF74D950020FE96E13
:1021F000DACFEAFFEF50020B07E1DECFE9FFDDCFD8
:10220000EAFFEF50800B2BE0040124BF07D02451DC
:102210000F0BEA6A860FE96E000E06D024510F0BF1
:10222000EA6A840FE96E000EEA22EF923B0E006E1E
:10223000DECFE9FFDDCFEAFFE850EF16020EE66ED3
:10224000E66ADECFE6FFDDCFE6FF050EE66EE66A64
:102250006FEC28F0006E060EE15E005007D03B0EDA
:10226000DECFE9FFDDCFEAFFE850EF16040124518D
:102270000F0B016A6A0F006E0F0E0122030E00C0E1
:10228000DBFF040E01C0DBFF030EDBCFE9FF040E12
:10229000DBCFEAFFEF90050EE15C02E2E16AE55276
:0A22A000E16EE552E7CFD9FF12000E
:0622AA00830EE66E30EC2D
:1022B0002EF0E552D59AF294F28E120007EF08F054
:1022C00094A402D09494120094841200D9CFE6FF13
:1022D000E1CFD9FF0501E55104E193948A94E36BC2
:1022E000E46B9394FE0EDB5004E082B007D08A8446
:1022F00002D08A94E36BFE0EDBCFE4F5E552E7CF24
:10230000D9FF1200D9CFE6FFE1CFD9FFFB0EDBCF1B
:1023100000F0FC0EDBCF01F0FD0EDBCF02F0FE0E75
:10232000DBCF03F0206A216A226A236A00C01BF017
:1023300001C01CF002C01DF003C01EF057EC25F0D8
:10234000010A33E1F90EDBCFE9FFDB2AFA0EDBCF1E
:10235000EAFF01E3DB2A2D0EEF6EFB0EDBCF00F070
:10236000FC0EDBCF01F0FD0EDBCF02F0FE0EDBCF6B
:1023700003F0206A216A800E226EBF0E236E00C019
:102380001BF001C01CF002C01DF003C01EF07BEC6E
:1023900024F0FB0E1BC0DBFFFC0E1CC0DBFFFD0EA0
:1023A0001DC0DBFFFE0E1EC0DBFFFB0EDBCF00F00F
:1023B000FC0EDBCF01F0FD0EDBCF02F0FE0EDBCF1B
:1023C00003F0206A216A200E226E410E236E00C0A7
:1023D0001BF001C01CF002C01DF003C01EF04EEC4B
:1023E00025F0010A72E1FB0EDBCF06F0FC0EDBCF1D
:1023F00007F0FD0EDBCF08F0FE0EDBCF09F0FB0E81
:10240000DBCF1BF0FC0EDBCF1CF0FD0EDBCF1DF095
:10241000FE0EDBCF1EF017EC25F078EC23F01BC08E
:102420000AF01CC00BF01DC00CF01EC00DF01BC04C
:1024300020F01CC021F01DC022F01EC023F006C0F9
:102440001BF007C01CF008C01DF009C01EF091EC85
:1024500023F01BC002F01CC003F01DC004F01EC01E
:1024600005F0206A216A7A0E226E440E236E7BEC00
:1024700024F0E8EC24F01CC000F01DC001F01CC0EA
:10248000E6FF1DC0E6FFFB0EDBCF1BF0FC0EDBCF33
:102490001CF0FD0EDBCF1DF0FE0EDBCF1EF017ECA7
:1024A00025F01AC00EF01BC00FF01CC010F01DC0AC
:1024B00011F01AC0E6FF1BC0E6FF1CC0E6FF1DC0FE
:1024C000E6FF3C0E126E590E71D0FB0EDBCF06F00C
:1024D000FC0EDBCF07F0FD0EDBCF08F0FE0EDBCFEE
:1024E00009F0FB0EDBCF1BF0FC0EDBCF1CF0FD0E6A
:1024F000DBCF1DF0FE0EDBCF1EF017EC25F078ECE5
:1025000023F01BC00AF01CC00BF01DC00CF01EC055
:102510000DF01BC020F01CC021F01DC022F01EC019
:1025200023F006C01BF007C01CF008C01DF009C056
:102530001EF091EC23F01BC002F01CC003F01DC084
:1025400004F01EC005F0206A216A7A0E226E440E45
:10255000236E7BEC24F0E8EC24F01CC000F01DC0DE
:1025600001F01CC0E6FF1DC0E6FFFB0EDBCF1BF039
:10257000FC0EDBCF1CF0FD0EDBCF1DF0FE0EDBCF23
:102580001EF017EC25F01AC00EF01BC00FF01CC097
:1025900010F01DC011F01AC0E6FF1BC0E6FF1CC002
:1025A000E6FF1DC0E6FF310E126E590E136E146A5F
:1025B00012C0E6FFE66E14C0E6FFF90EDBCFE6FFC1
:1025C000FA0EDBCFE6FFB5EC2BF0156E0B0EE15EDD
:1025D0001550E552E7CFD9FF1200D9CFE6FFE1CF82
:1025E000D9FF280EE12689DB1AC0EBF51BC0ECF5FC
:1025F0001CC0EDF51DC0EEF50501E6510AE0E7C58A
:10260000E6FFE8C5E6FFF5EC20F0E552E5520501EE
:10261000E66B94EC1FF01AC0EFF51BC0F0F51CC080
:10262000F1F51DC0F2F50EEC20F01AC0F3F51BC059
:10263000F4F51CC0F5F51DC0F6F50501E351030ADC
:102640004FE0020A09E0030A51E0020A4FE1F76B8A
:10265000F86BF96BFA6B4AD0CD0E206ECC0E216E62
:10266000226E3D0E236EF3C51BF0F4C51CF0F5C5BC
:102670001DF0F6C51EF07BEC24F01BC004F01CC05E
:1026800005F01DC006F01EC007F0206A216A610E29
:10269000226E450E236E28EC24F01BC000F01CC0F7
:1026A00001F01DC002F01EC003F01BC020F01CC0D2
:1026B00021F01DC022F01EC023F0F7C51BF0F8C5A5
:1026C0001CF0F9C51DF0FAC51EF092EC23F01BC0FA
:1026D000F7F51CC0F8F51DC0F9F51EC0FAF506D0D7
:1026E000F76BF86BF96BFA6B010EE36FD9CFE6FF6E
:1026F000DACFE6FFEBC5E6FFECC5E6FFEDC5E6FF8A
:10270000EEC5E6FFFFDD006E060EE15E0050D9501B
:102710000A0FE66E000EDA20E66EEFC5E6FFF0C5A2
:10272000E6FFF1C5E6FFF2C5E6FFECDD006E060E42
:10273000E15E0050D950140FE66E000EDA20E66E0E
:10274000F3C5E6FFF4C5E6FFF5C5E6FFF6C5E6FF0F
:10275000D9DD006E060EE15E0050D9501E0FE66E08
:10276000000EDA20E66EF7C5E6FFF8C5E6FFF9C50C
:10277000E6FFFAC5E6FFC6DD006E060EE15E00501C
:102780000501E55101E160D1E45101E141D1D950A8
:102790000A0FE66E000EDA20E66ED9CFE6FFDACF3A
:1027A000E6FF260E006E590E016E026A00C0E6FFBB
:1027B000E66E02C0E6FFAC0EE66E050EE66EB5EC08
:1027C0002BF0036E090EE15E0350206A216A200E91
:1027D000226E410E236EF3C51BF0F4C51CF0F5C547
:1027E0001DF0F6C51EF04EEC25F0010A22E1206A2C
:1027F000216AC80E226E420E236EF7C51BF0F8C583
:102800001CF0F9C51DF0FAC51EF057EC25F0010AC1
:1028100010E0D9501E0FE66E000EDA20E66ED95099
:10282000140FE66E000EDA20E66E1E0E006E590ED4
:10283000DFD0206A216A200E226E410E236EF3C57E
:102840001BF0F4C51CF0F5C51DF0F6C51EF04EECEE
:1028500025F0010A22E1206A216A200E226E410E33
:10286000236EF7C51BF0F8C51CF0F9C51DF0FAC5BD
:102870001EF057EC25F0010A10E0D9501E0FE66E4D
:10288000000EDA20E66ED950140FE66E000EDA2044
:10289000E66E150E006E590EABD0206A216A200E2E
:1028A000226E410E236EF3C51BF0F4C51CF0F5C576
:1028B0001DF0F6C51EF04EEC25F0010A22E1206A5B
:1028C000216A200E226E410E236EF7C51BF0F8C55B
:1028D0001CF0F9C51DF0FAC51EF057EC25F0010AF1
:1028E00010E1D9501E0FE66E000EDA20E66ED950C8
:1028F000140FE66E000EDA20E66E0B0E006E590E17
:1029000077D0206A216A200E226E410E236EF3C515
:102910001BF0F4C51CF0F5C51DF0F6C51EF057EC14
:1029200025F0010A22E1206A216AC80E226E420EB9
:10293000236EF7C51BF0F8C51CF0F9C51DF0FAC5EC
:102940001EF057EC25F0010A10E0D9501E0FE66E7C
:10295000000EDA20E66ED950140FE66E000EDA2073
:10296000E66E020E006E590E43D0206A216A200ED8
:10297000226E410E236EF3C51BF0F4C51CF0F5C5A5
:102980001DF0F6C51EF057EC25F0010A22E1206A81
:10299000216A200E226E410E236EF7C51BF0F8C58A
:1029A0001CF0F9C51DF0FAC51EF057EC25F0010A20
:1029B00010E0D9501E0FE66E000EDA20E66ED950F8
:1029C000140FE66E000EDA20E66EF80E006E580E5A
:1029D0000FD0D9501E0FE66E000EDA20E66ED950E9
:1029E000140FE66E000EDA20E66EED0E006E580E45
:1029F000016E026A00C0E6FFE66E02C0E6FFBD0E91
:102A0000E66E050EE66EB5EC2BF0036E090E42D0B5
:102A1000D9CFE6FFDACFE6FFDF0E006E580E016E6B
:102A2000026A00C0E6FFE66E02C0E6FFAC0EE66E8C
:102A3000050EE66EB5EC2BF0036E070EE15E03505B
:102A4000CE0E006E580E17D0BD0E006E580E016EE1
:102A5000026A00C0E6FFE66E02C0E6FFAC0EE66E5C
:102A6000050EE66EB5EC2BF0036E050EE15E03502D
:102A7000BD0E006E580E016E026A00C0E6FFE66EE3
:102A800002C0E6FFBD0EE66E050EE66EB5EC2BF05D
:102A9000036E050EE15E0350280EE15C02E2E16A7E
:102AA000E552E16EE552E7CFD9FF1200D9CFE6FF3C
:102AB000E1CFD9FF020EE126DE6ADD6A82A008D0EE
:102AC0000501E45152E0E66A66EC11F0E5524DD0A2
:102AD00083B639D083B62BD0D00EE66E070EE66EE5
:102AE000B9EC28F0E552E552DF2A010E01E3DB2ABA
:102AF000D9CFE9FFDACFEAFF2C0ED880EE54010ED1
:102B0000ED54E8E20501E55102E0E66A02D0010E6B
:102B1000E66E66EC2AF0E552E66A66EC11F0E552E4
:102B200094845BDD96EC29F083B61FD0FDD70501B8
:102B3000E55109E0E45102E0E66A02D0010EE66EDA
:102B400066EC11F0E55283B410D083A4FED70501E2
:102B5000E4510BE0E30502E1020E06D0E35103E08D
:102B6000020EE35D02E1030EE36F020EE15C02E29E
:102B7000E16AE552E16EE552E7CFD9FF1200230E7C
:102B80000501DF5D000EE059000EE159000EE2592B
:102B900052E3DFC500F0010E0016016A026A036A03
:102BA000005001100210031009E180DF16DD05015D
:102BB000E30541E105012A0EB46F3DD0020EE35D4D
:102BC00038E1DFC500F0E0C501F0E1C502F0E2C583
:102BD00003F0050E1F6E206A216A226ADFC51AF013
:102BE000E0C51BF0E1C51CF0E2C51DF0F0EC2DF0D6
:102BF00016C000F017C001F018C002F019C003F0B1
:102C0000165017101810191014E1B40E006E580E5B
:102C1000016E026A00C0E6FFE66E02C0E6FFC50E66
:102C2000E66E050EE66EB5EC2BF0036E050EE15E6A
:102C3000035096EC29F0DFC500F0E0C501F0E1C5D6
:102C400002F0E2C503F00F0E1F6E206A216A226AAD
:102C5000DFC51AF0E0C51BF0E1C51CF0E2C51DF0B0
:102C6000F0EC2DF016C000F017C001F018C002F013
:102C700019C003F0165017101810191005E10501BE
:102C8000E55102E060EC11F00501DF2B000EE023BE
:102C9000E123E2231200D9CFE6FFE1CFD9FF040EF2
:102CA000E126DE6ADD6A020EDB6A030EDB6AC2829F
:102CB000C2B2FED7020EC3CFDBFF030EC4CFDBFFD1
:102CC000DBCF02F002C003F0026A020EDB500210FA
:102CD000DE6E03C0DDFFDECF00F0DDCF01F000C00F
:102CE000F3FF01C0F4FF040EE15C02E2E16AE55289
:102CF000E16EE552E7CFD9FF1200D9CFE6FFE1CF71
:102D0000D9FF140EE126DE6ADD6A020EDB6A030ECD
:102D1000DB6AEC0EF36E040EF3CFDBFF510EF36EA5
:102D2000050EF3CFDBFFA80EF36E060EF3CFDBFF2D
:102D3000400EF36E070EF3CFDBFF080EDB6A090EC1
:102D4000DB6A400EF36E0A0EF3CFDBFF400EF36E2C
:102D50000B0EF3CFDBFF0C0EDB6A0D0EDB6A0E0EE3
:102D6000DB6A0F0EDB6A100EDB6A110EDB6A120ED5
:102D7000DB6A130EDB6A8FDFF3CFDEFFF4CFDDFFFC
:102D8000040EDBCF04F0050EDBCF05F0060EDBCF23
:102D900006F0070EDBCF07F0080EDBCF08F0090EB8
:102DA000DBCF09F00A0EDBCF0AF00B0EDBCF0BF006
:102DB00008C020F009C021F00AC022F00BC023F0A7
:102DC00004C01BF005C01CF006C01DF007C01EF0BB
:102DD00091EC23F01BC000F01CC001F01DC002F0FC
:102DE0001EC003F0206A216A800E226E440E236EFC
:102DF00028EC24F00C0E1BC0DBFF0D0E1CC0DBFF0B
:102E00000E0E1DC0DBFF0F0E1EC0DBFF080EDBCF5A
:102E100000F0090EDBCF01F00A0EDBCF02F00B0E43
:102E2000DBCF03F0000EDFCF1CF0010EDBCF1DF077
:102E300061EC23F00C0EDBCF20F00D0EDBCF21F088
:102E40000E0EDBCF22F00F0EDBCF23F07BEC24F055
:102E50001BC004F01CC005F01DC006F01EC007F02A
:102E60001BC020F01CC021F01DC022F01EC023F0AA
:102E700000C01BF001C01CF002C01DF003C01EF01A
:102E800092EC23F0100E1BC0DBFF110E1CC0DBFF09
:102E9000120E1DC0DBFF130E1EC0DBFF100EDBCFBA
:102EA00000F0110EDBCF01F0120EDBCF02F0130E9B
:102EB000DBCF03F0206A216AC80E226E420E236E19
:102EC00000C01BF001C01CF002C01DF003C01EF0CA
:102ED0007BEC24F0100E1BC0DBFF110E1CC0DBFFCF
:102EE000120E1DC0DBFF130E1EC0DBFF100EDBCF6A
:102EF0001BF0110EDBCF1CF0120EDBCF1DF0130EFA
:102F0000DBCF1EF0E8EC24F0020E1CC0DBFF030E4A
:102F10001DC0DBFF020EDBCF00F0030EDBCF01F0A4
:102F2000026A036A0501E751001808E1E851011837
:102F300005E1E951021802E1EA5103180AE0020E24
:102F4000DBCFE7F5030EDBCFE8F5E96BEA6B010EAB
:102F5000E66F020EDBCF1CF0030EDBCF1DF061EC41
:102F600023F01BC004F01CC005F01DC006F01EC0FD
:102F700007F0206A216AC80E226E420E236E28ECEA
:102F800024F01BC000F01CC001F01DC002F01EC0E8
:102F900003F01BC01AF01CC01BF01DC01CF01EC0AB
:102FA0001DF0140EE15C02E2E16AE552E16EE552C9
:062FB000E7CFD9FF12007B
:0A2FB60017EC1DF0FB0EDBCFF3FF5C
:102FC000DB06F35000090AE065EC1DF0FA0ED0ECC8
:102FD0001DF0F3E1011CF1E1010E01D0000E46EFFE
:102FE0001DF017EC1DF03B0EE12402E3E168E65210
:102FF000E16E010EDB6A020EDB6AF90EDBCFF6FF33
:10300000FA0EDBCFF7FFFB0EDBCFF8FF0800F55021
:10301000DF6EDF5002E16AEF1CF0250EDF5C02E09C
:103020005DEF1CF0030EDB6A040EDB6A050EDB6A43
:10303000060EDB6A070EDB6A7FEC1CF02D0EDF5CF0
:103040000CE02B0EDF5C09E0200EDF5C06E0230EB7
:10305000DF5C03E0300EDF5C1AE1DF50300A14E081
:10306000130A0FE0030A0AE00B0A05E0060AE4E18E
:10307000030EDB80E1D7030EDB82DED7030EDB8499
:10308000DBD7030EDB86D8D7030EDB88D5D72A0E15
:10309000DF5C1BE17BEC1CF0C9EC1CF010E0030EC4
:1030A000DB801C681D68130EDBCF21F0140EDBCF14
:1030B00022F03BEC26F0040E1AC0DBFF03D0130E07
:1030C000B2EC1CF07FEC1CF00BD0090EDB6A20EC9C
:1030D0001DF003E094EC1DF0FAD7090EB2EC1CF0E1
:1030E000030EDBB0DB982E0EDF5C1BE17FEC1CF0E7
:1030F0002A0EDF5C0BE17BEC1CF0C9EC1CF003E159
:10310000130E04EC1DF07FEC1CF00BD0090EDB6AF3
:1031100020EC1DF003E094EC1DF0FAD7090E04EC4E
:103120001DF0680EDF5C07E17FEC1CF0680EDF5CD1
:103130001DE1030E18D0740EDF5C17E07A0EDF5C21
:1031400014E0480EDF5C06E0540EDF5C03E05A0E2C
:10315000DF5C02E1020E07D06C0EDF5C03E06A0E5A
:10316000DF5C04E1010E57EC1DF0C9DBDF506E0A95
:1031700001E17FD31E0A01E192D1200A01E18FD142
:103180003F0A01E149D11A0A01E146D10D0A01E1E4
:1031900043D1200A01E140D13A0A01E13DD1200AA0
:1031A00001E13AD1260A01E135D10D0A01E132D11E
:1031B0001A0A01E1D9D0200A4AE0300A1FE0460A83
:1031C0000EE0250A01E083D3D950F90FE96EFF0E16
:1031D000DA20EA6E010EEE5E000EEE5AEE5A65EC53
:1031E0001DF0250EE66E95DB03E1011C01E169D3BC
:1031F00061EC1DF001E26BD3DB2A69D3080EDB6AB8
:10320000040EDB50010806E2040EDB0429EC1DF07D
:10321000DB508BDB080EDB5009E0030EDB50010BAB
:1032200005E172DB01E04DD3080EDB6A64DBEFCF12
:10323000DFFFD9EC1DF003E1011C01E142D361EC99
:103240001DF001E3DB2A60DB01E141D33AD3070E35
:10325000DB5002080FE1A5EC1DF0030E6CEC1DF035
:103260000E0EEECFDBFF0F0EEECFDBFF100EEECF1C
:10327000DBFF20D0F70EDBCF03F0F80EDBCF04F03E
:10328000020E035E000E045AF70E03C0DBFFF80EB9
:1032900004C0DBFF03C0E9FF04C0EAFF5CEC1DF0E3
:1032A000026A0E0E00C0DBFF0F0E01C0DBFF100E26
:1032B00002C0DBFF0E0EDBCFE6FF0F0EDBCFE6FF1B
:1032C000100EDBCFE6FFCCEC2AF0E552E552E552DA
:1032D000130E1BC0DBFF140E1CC0DBFF060EDB5001
:1032E00005E0130EA0EC1DF001E26ADBC4EC1DF05A
:1032F00002E2130E37DB87EC1DF006E0040EA0ECB3
:103300001DF002E2050E2EDB030EDBB005D0FCDA69
:1033100001E0D7D2080EDB6A090EDB6A0E0EDBCFA6
:10332000F6FF0F0EDBCFF7FF100EDBCFF8FF080024
:10333000F550DF6EDF5014E0CAEC1DF011E2D9EC5D
:103340001DF003E1011C01E1BCD2BBDB01E3DB2A80
:10335000090EDB2AD9500E0FE96E000ECBDBE7D742
:10336000D3DA01E1B4D2ADD2C6DA110EEECFDBFF73
:10337000120EEDCFDBFF110EDBCFE6FF120EDBCF1F
:10338000E6FFBEEC2AF0E552E552130EF3CFDBFF69
:10339000140EF4CFDBFF060EDB5004E0130ED0DB7F
:1033A00001E20EDBC4EC1DF002E2130EDBDAAFDB50
:1033B00005E0040EC5DB02E2050ED4DA030EDBB035
:1033C00005D0A2DA01E07DD2080EDB6A090EDB6AC5
:1033D000110EDBCFE9FF120EDBCFEAFFEFCFDFFFED
:1033E000DF5014E0D7DB12E2E4DB03E1011C01E172
:1033F00068D267DB01E3DB2A090EDB2A110EDB2A28
:10340000DBCFE9FF120EE8E3DB2AE6D77DDA01E144
:103410005ED257D2030EDB8E070EDB0410E195DB84
:10342000040E5ADB0A0EEECFDBFF0B0EEECFDBFFF6
:103430000C0EEECFDBFF0D0EEECFDBFF6CD0070ED8
:10344000DB5003082CE1030EDBAE0DD0B2DA020E26
:1034500076DAEFCF00F0016A026A036A00AE39D073
:103460000168026835D0F70EDBCF01F0F80EDBCF34
:1034700002F0020E015E000E025AF70E01C0DBFFE1
:10348000F80E02C0DBFF01C0E9FF02C0EAFFEFCF88
:1034900000F00A0E00C0DBFF0B0EDB6A38D0070E0F
:1034A000DB50020809E1030EDBAE04D059DB02AEAB
:1034B00010D00ED055DB0DD0030EDBAE12D079DA72
:1034C000020E3DDAF9DA026A036A01AE02D002683E
:1034D0000368E2DA0C0E02C0DBFF0D0E03C0DBFF57
:1034E0001AD0F70EDBCF02F0F80EDBCF03F0020E9E
:1034F000025E000E035AF70E02C0DBFFF80E03C097
:10350000DBFF02C0E9FF03C0EAFFD6DAC5DA0C0E22
:10351000DB6A0D0EDB6A060EDB5005E1010EF36E71
:10352000050EF3CFDBFF150EDB6A160EDB6AD950F2
:10353000370F006E000EDA20016E390E00C0DBFF7F
:103540003A0E01C0DBFF380EDB6A080EDB6A0A0E9A
:10355000AEDADF50780A12E0200A10E0280A0CE008
:10356000200A0AE03F0A06E00D0A02E0200A08E10C
:10357000020E05D0080E03D0080EDF26100E97DAD3
:10358000030EDBBE02D0DB92DB94DB50800B24E029
:103590008ADAD890030EEB50000A08E6000EEE5CC3
:1035A000000EEE58000EEE58000EEE5815E213DA3B
:1035B0001F682068216822685FEC2DF00A0E16C093
:1035C000DBFF0B0E17C0DBFF0C0E18C0DBFF0D0E70
:1035D00019C0DBFF2D0E08D0030EDBA202D02B0E8C
:1035E00003D0DBA408D0200EF36E170EF3CFDBFF61
:1035F000150EDB2A02D0170EDB6A050EDB5003E145
:10360000B7D901E189D0AA0E006E5D0E016E000EE1
:10361000026E070EDBCF03F0046A056A066A03C078
:103620001FF004C020F005C021F006C022F0D3D95D
:10363000F0EC2DF000501624F36E01501720F46EBC
:1036400002501820F86EF4CFF7FFF3CFF6FF080012
:10365000090EF5CFDBFF580EDF5C0FE1610EF36E54
:10366000090E7BD90AE3200E006E090EDBCFE7FFBF
:103670000050E75E090EE7CFDBFF070EDBCF00F05F
:10368000016A026A036A0FDA00C01FF001C020F06D
:1036900002C021F003C022F0EECF1AF0EECF1BF0F3
:1036A000EECF1CF0EFCF1DF0F0EC2DF01DC0EDFFC4
:1036B0001CC0EDFF1BC0EDFF1AC0EFFF390EDBCFC2
:1036C000E9FFDB063A0EDBCFEAFF01E2DB06090E7B
:1036D000DBCFEFFF150EDB2A4BD995E1030EDBA6FE
:1036E0001DD06F0EDF5C06E1C1D918E3150EDB2893
:1036F0005BDA14D0780EDF5C09E0580EDF5C06E080
:10370000620EDF5C03E0420EDF5C08E1020EF36E46
:10371000160EF3CFDBFF02D0150EDB6A030EDB5073
:10372000100B0EE0040EDBCF00F0050EDB50D8804E
:10373000005406E2060EDB5003E1040EDB5034DADF
:1037400095D90AE2050EDBCFE7FF150EDB50E75EE9
:10375000050EE7CFDBFF02D0050EDB6A040EDBCFE0
:1037600000F0160E45D9D880005414E2160EDBCFB7
:10377000E6FF150EDBCFE6FF040EDBCFE6FF050EFE
:10378000DB50E552E75CE552D880E754E552D8803B
:10379000E7545FD9030EDB50010B0BE1080EDB5041
:1037A00008E0B2D801E08DD0080EDB50BED8080E7C
:1037B000DB6A170EDB5007E088D9170EF1D903E159
:1037C000011C01E17ED0160EDB5016E07ED9300ED2
:1037D000E66E9FD802E1011C74E077D9DFCFE6FFE7
:1037E000A4EC2CF0E552E552E552F4CF01F00001D3
:1037F000F31C02E1011C65E0050EDBCF00F0160EA4
:10380000DB50D880005409E2050EDBCFE7FF160E2F
:10381000DB50E75E050EE7CFDBFF300EE66E050EF0
:10382000CBD94FE1390EDB2ADBCFE9FF3A0E01E3BA
:10383000DB2ADBCFEAFF090EEFCFDBFFDB500EE028
:1038400044D9090EADD902E1011C3BE0390EDB2A57
:10385000DBCFE9FF3A0EEDE3DB2AEBD755D831E1B8
:10386000160EDBCFE6FF080EC3D8E552E7245DD87D
:103870002ED0070EDB50030A1CE0010A14E0030AF5
:1038800007E07BD9DBCFEEFF020EDBCFEDFF1FD0D1
:10389000F5D8056A03AE02D0046805682CD8BCD8F8
:1038A00005C0EEFF14D0EAD803BE046824D8B4D80B
:1038B0000ED063D9DBCFEFFF0AD07BD905E1011C25
:1038C00003E1F368F46810D0FCD801E3DB2A79D96E
:1038D00006EF18F0010EDBCF00F0020EDBCF01F097
:1038E00000C0F3FF01C0F4FF3B0EE15C02E2E16ABD
:1038F000E552E16ECBD029D9020E6CEF1DF061D9F3
:103900000800F550DF6E1200200EE66E080EDCEFA8
:103910001DF0A4EC2CF0E552E552E552F3CF00F097
:10392000F4CF01F00001F31C1200006E016AD950BF
:10393000010F4DD90050EE260150ED221200045E19
:10394000000E055AF70E04C0DBFFF80E05C0DBFFC2
:1039500004C0E9FF05C0EAFF1200DBCFF4FFF3501B
:10396000F45C1200DB50E76E040EE7CFDBFF1200C1
:103970000A0EDBCF00F00B0EDBCF01F00C0EDBCF1D
:1039800002F00D0EDBCF03F0005001100210031007
:103990001200130EEECFDBFF140EEDCFDBFF130E84
:1039A000DBCF00F0140EDBCF01F00001800E01141C
:1039B0001200F70EDBCF04F0F80EDBCF05F012009B
:1039C000050EDB50E66ED950130F01D9E552E750D2
:1039D000EE6EED6A12000A0EDBCF1AF00B0EDBCF93
:1039E0001BF00C0EDBCF1CF00D0EDBCF1DF0120018
:1039F000DBCFE6FF150EDBCFE6FF050EDB50E55211
:103A0000E724E552E7241200DB50CED8010EF36E16
:103A1000060EF3CFDBFF1200EE50EFCFEAFFE96EA8
:103A200002C0EEFF03C0EEFF04C0EEFF1200D9CFCC
:103A3000E6FFDACFE6FFE1CFD9FFE2CFDAFF1200EF
:103A4000DFCFE6FFE66A79EC2EF0E552E552F3505F
:103A50001200E76E080EE7CFDBFF1200EECF00F09A
:103A6000EECF01F0EFCF02F0036A1200050EDBCFBC
:103A700000F0150EDB50D88000541200010EDBCF91
:103A800002F0020EDBCF03F0046A1200E552E5CF2C
:103A9000DAFFE7CFD9FF12000A0E00C0DBFF0B0EE2
:103AA00001C0DBFF1200D9500A0FE7EF1DF0F36EE3
:103AB000070EF3CFDBFF1200EECF00F0EFCF01F0E7
:103AC0001200010EDB2A020E1200FC0EDBCFE6FF15
:103AD000FD0EDBCFE6FF1200005E000E015AF70E6E
:103AE00000C0DBFFF80E01C0DBFF00C0E9FF01C032
:103AF000EAFF1200DA20EA6EEF2AEECFF6FF000EA0
:103B0000EF22EECFF7FFEF22EECFF8FF1200040E08
:103B1000DBCFE6FF130EDB50E552E75C9ADFDB50AC
:103B200004DF060EDB501200090EDB500A0DF350C5
:103B3000DF24D00FE76E090EE7CFDBFF7FEF1CF02D
:103B4000DB50F36E050EADEF1CF0F70EDBCF00F08F
:103B5000F80EDBCF01F01200DFCFE6FF89EF1CF09B
:103B600028DF030EECDE2EEF1DF0DBEC17F0E55244
:103B7000E552E552E55200091200BDDEEE50EFCFEE
:103B8000EAFFE96E010E1200130EDB50F36E040E15
:103B9000ADEF1CF0040EDB50F36E090EADEF1CF020
:103BA000DBCFE6FF89EF1CF0E76E050EE7CFDBFF0A
:103BB00012008BDFACEF1DF0DBCFE6FF86DFB5EF49
:103BC0001DF0D950F90FE96EFF0E7AEF1DF0E96E86
:083BD000000EDA20EA6E12007B
:083BD80095908C90938093827C
:103BE00085808582C78EC79CBF0EC86E280EC66EA4
:103BF000C56AC750040B01E0010E006E1F0EC5140C
:103C00000010F7E11200080EC66E1200D9CFE6FFD1
:103C1000E1CFD9FF030EE126DF6AFD0EDBCF01F015
:103C200001C000F0016AFF0E0016000E0116010E21
:103C300000C0DBFFFF0EE76EFC0EDBCF00F0FD0ED9
:103C4000DBCF01F0E7500016016A020E00C0DBFF77
:103C5000C750040B01E0010E006E1F0EC5140010CA
:103C6000F7E1C580C5B0FED7800EE66EE6EC2CF01D
:103C7000E552DF6EDFCF00F0003421E2FE0EDBCF35
:103C8000E6FFE6EC2CF0E552DF6EDFCF00F000340B
:103C900016E2010EDBCFE6FFE6EC2CF0E552DF6E1C
:103CA000DFCF00F000340BE2020EDBCFE6FFE6ECE4
:103CB0002CF0E552DF6EDFCF00F0003402E3DF507E
:103CC00004D0C584C5B4FED7DF50006E030EE15C9E
:103CD00002E2E16AE552E16E0050E552E7CFD9FF1A
:103CE0001200D9CFE6FFE1CFD9FF030EE126DF6A4C
:103CF000010EDB6A020EDB6AC750040B01E0010E05
:103D0000006E1F0EC5140010F7E1C580C5B0FED7C8
:103D1000800EE66EE6EC2CF0E552E76E020EE7CF81
:103D2000DBFFDBCF00F0003448E2FE0EDBCFE6FF26
:103D3000E6EC2CF0E552E76E020EE7CFDBFFDBCFBF
:103D400000F000343AE2C582C5B2FED7810EE66EBD
:103D5000E6EC2CF0E552E76E020EE7CFDBFFDBCF9F
:103D600000F000342AE2C8EC2EF0E76E010EE7CF37
:103D7000DBFFC59AC588C5B8FED7C8EC2EF0DF6E4C
:103D8000C58AC588C5B8FED7C584C5B4FED7FC0EA4
:103D9000DBCFE9FFFD0EDBCFEAFFDFCFEFFFFC0E4D
:103DA000DB2AFD0E01E3DB2AFC0EDBCFE9FFFD0E73
:103DB000DBCFEAFF010EDBCFEFFF020EDB50006E20
:103DC000030EE15C02E2E16AE552E16E0050E55269
:103DD000E7CFD9FF1200D9CFE6FFE1CFD9FF030E1D
:103DE000E126DF6A010EDB68450EF36E020EF3CFAB
:103DF000DBFF010EDBCFE6FF020EDBCFE6FFE66A5C
:103E000005DFE552E552E552DF6EBD0EF36E010EA1
:103E1000F3CFDBFF080EF36E020EF3CFDBFF010ED4
:103E2000DBCFE6FF020EDBCFE6FF050EE66EEEDE31
:103E3000E552E552E552DF6E080EF36E010EF3CF48
:103E4000DBFF040EF36E020EF3CFDBFF010EDBCFC0
:103E5000E6FF020EDBCFE6FF060EE66ED7DEE5528A
:103E6000E552E552DF6EDF50006E030EE15C02E2C8
:103E7000E16AE552E16E0050E552E7CFD9FF12004A
:103E8000D9CFE6FFE1CFD9FF060EE1260A0EF36E89
:103E9000020EF3CFDBFFD70EF36E030EF3CFDBFF83
:103EA000A30EF36E040EF3CFDBFF3A0EF36E050E96
:103EB000F3CFDBFFD9CFE6FFDACFE6FF020EE66EE7
:103EC00010DFE552E552E552000EDFCF1CF0010E87
:103ED000DBCF1DF061EC23F0020EDBCF20F0030EF0
:103EE000DBCF21F0040EDBCF22F0050EDBCF23F079
:103EF0007BEC24F01BC000F01CC001F01DC002F0E0
:103F00001EC003F01BC01AF01CC01BF01DC01CF02B
:103F10001EC01DF0060EE15C02E2E16AE552E16EB0
:103F2000E552E7CFD9FF1200D9CFE6FFE1CFD9FFA5
:103F3000060EE126400EF36E020EF3CFDBFF030EFA
:103F4000DB6E200EF36E040EF3CFDBFF390EF36E43
:103F5000050EF3CFDBFFD9CFE6FFDACFE6FF040E85
:103F6000E66EBFDEE552E552E552DECF00F0DDCF72
:103F700001F03B0E005C000E015803E2DE6ADD6AD0
:103F80001DD0DECF00F0DDCF01F0026A0234000E5A
:103F9000021807E6D880000E0054800E0154000E6F
:103FA00002540CE20501E45104E0E66A66EC11F00B
:103FB000E552006A016A026A036A1ED0000EDFCF72
:103FC0001CF0010EDBCF1DF061EC23F0020EDBCF05
:103FD00020F0030EDBCF21F0040EDBCF22F0050E24
:103FE000DBCF23F07BEC24F01BC000F01CC001F001
:103FF0001DC002F01EC003F000C01AF001C01BF08B
:1040000002C01CF003C01DF0060EE15C02E2E16A92
:10401000E552E16EE552E7CFD9FF1200D9CFE6FFB6
:10402000E1CFD9FF060EE126740EF36E020EF3CF38
:10403000DBFF240EF36E030EF3CFDBFF7A0EF36E7D
:10404000040EF3CFDBFF3B0EF36E050EF3CFDBFF69
:10405000D9CFE6FFDACFE6FF030EE66E42DEE55289
:10406000E552E552DECF00F0DDCF01F00A0E005C34
:10407000000E015802E2DE6ADD6A000EDFCF1CF09E
:10408000010EDBCF1DF061EC23F0020EDBCF20F040
:10409000030EDBCF21F0040EDBCF22F0050EDBCFC9
:1040A00023F07BEC24F01BC000F01CC001F01DC00D
:1040B00002F01EC003F01BC01AF01CC01BF01DC094
:1040C0001CF01EC01DF0060EE15C02E2E16AE55242
:1040D000E16EE552E7CFD9FF1200D9CFE6FFE1CF7D
:1040E000D9FF020EE126DF6A010EDB6ADBCFE7FFB4
:1040F000FE0EDB50E712010EE7CFDBFFC750040BCB
:1041000001E0010E006E1F0EC5140010F7E1C5801E
:10411000C5B0FED7580EE66EE6EC2CF0E552DF6E29
:10412000DFCF00F0003416E2010EDBCFE6FFE6EC55
:104130002CF0E552DF6EDFCF00F000340BE2FD0E15
:10414000DBCFE6FFE6EC2CF0E552DF6EDFCF00F0D0
:10415000003402E3DF5004D0C584C5B4FED7DF507D
:10416000006E020EE15C02E2E16AE552E16E00508F
:10417000E552E7CFD9FF1200D9CFE6FFE1CFD9FF53
:10418000020EE126DF6A010EDB6ADE52BB0EDD6E37
:10419000010EDBCFE6FF400EE66E9FDFE552E552F3
:1041A000DF6EDE52800EDD6E010EDBCFE6FFE66ACB
:1041B00094DFE552E552DF6EDE52800EDD6E010EB9
:1041C000DBCFE6FF100EE66E88DFE552E552DF6ECC
:1041D000DF50006E020EE15C02E2E16AE552E16E40
:1041E0000050E552E7CFD9FF1200D9CFE6FFE1CF6B
:1041F000D9FF290EE126DF6A640EF36E010EF3CFBC
:10420000DBFF020EDB6A140EF36E030EF3CFDBFF4F
:10421000040EDB6A050EDB6A060EDB6A070EDB6A3C
:10422000080EDB6A090EDB6A0A0EDB6ABB0EF36E50
:104230000B0EF3CFDBFF040EF36E0C0EF3CFDBFFA0
:104240000D0EDB6A0E0EDB6A0F0EDB68100EDB68EC
:10425000110EDB6A120EDB6A130EDB6A140EDB6AC8
:10426000150EDB6A160EDB6A170EDB6A180EDB6AA8
:10427000190EDB6A1A0EDB6A1B0EDB6A1C0EDB6A88
:104280001D0EDB6A1E0EDB6A1F0EDB6A200EDB6A68
:10429000210EDB6A220EDB6A230EDB6A240EDB6A48
:1042A000250EDB6A260EDB6A0A0EF36E270EF3CFAD
:1042B000DBFF280EDB6AB80E006E1E0E016EBD0E0F
:1042C000026E400E036EC70E206E4B0E216E170E4F
:1042D000226E3F0E236EEBC51BF0ECC51CF0EDC546
:1042E0001DF0EEC51EF091EC23F01BC004F01CC0C5
:1042F00005F01DC006F01EC007F01BC020F01CC05A
:1043000021F01DC022F01EC023F000C01BF001C030
:104310001CF002C01DF003C01EF028EC24F0130EA8
:104320001BC0DBFF140E1CC0DBFF150E1DC0DBFF26
:10433000160E1EC0DBFF130EDBCF00F0140EDBCF1A
:1043400001F0150EDBCF02F0160EDBCF03F0206A72
:10435000216A7A0E226E440E236E00C01BF001C04B
:104360001CF002C01DF003C01EF07BEC24F0130E05
:104370001BC0DBFF140E1CC0DBFF150E1DC0DBFFD6
:10438000160E1EC0DBFF130EDBCF1BF0140EDBCFAF
:104390001CF0150EDBCF1DF0160EDBCF1EF0E8EC87
:1043A00024F00D0E1CC0DBFF0E0E1DC0DBFF0D0E3A
:1043B000DBCF02F00E0EDBCF03F00B0EDB50025C06
:1043C000006E0C0EDB500358016E090E00C0DBFFBF
:1043D0000A0E01C0DBFFFD0EDBCF00F0FE0EDBCFCF
:1043E00001F00D0ED8800056020E0156050E216E0A
:1043F000226A00C01CF001C01DF063EC2EF01CC04E
:1044000000F01DC001F0280E0102F3CF01F0000200
:10441000F3CF00F0F4500126640E0026000E0122B6
:10442000050E00C0DBFF060E01C0DBFF050EDBCF73
:1044300002F0060EDBCF03F0010EDB50025C006ED3
:10444000020EDB500358016E00C01CF01D6E030EFF
:10445000DBCF21F0040EDBCF22F063EC2EF00F0E49
:104460001CC0DBFF050EDBCF1CF0060EDBCF1DF002
:1044700061EC23F01BC000F01CC001F01DC002F075
:104480001EC003F0206A216A7A0E226E440E236E4B
:1044900028EC24F0170E1BC0DBFF180E1CC0DBFF3E
:1044A000190E1DC0DBFF1A0E1EC0DBFF090EDBCF8D
:1044B0001CF00A0EDBCF1DF061EC23F01BC000F0F6
:1044C0001CC001F01DC002F01EC003F0206A216A6A
:1044D0007A0E226E440E236E28EC24F01F0E1BC0B1
:1044E000DBFF200E1CC0DBFF210E1DC0DBFF220EF8
:1044F0001EC0DBFF1F0EDBCF1BF0200EDBCF1CF03E
:10450000210EDBCF1DF0220EDBCF1EF0170EDBCF0E
:1045100020F0180EDBCF21F0190EDBCF22F01A0E9F
:10452000DBCF23F07BEC24F01BC000F01CC001F0BB
:104530001DC002F01EC003F0170EDBCF08F0180EEE
:10454000DBCF09F0190EDBCF0AF01A0EDBCF0BF030
:104550001F0EDBCF0CF0200EDBCF0DF0210EDBCFDA
:104560000EF0220EDBCF0FF00CC020F00DC021F0BA
:104570000EC022F00FC023F008C01BF009C01CF0D1
:104580000AC01DF00BC01EF091EC23F01BC004F01C
:104590001CC005F01DC006F01EC007F01BC020F0B7
:1045A0001CC021F01DC022F01EC023F000C01BF073
:1045B00001C01CF002C01DF003C01EF028EC24F066
:1045C0001B0E1BC0DBFF1C0E1CC0DBFF1D0E1DC025
:1045D000DBFF1E0E1EC0DBFF1B0EDBCF00F01C0E30
:1045E000DBCF01F01D0EDBCF02F01E0EDBCF03F0A0
:1045F000206A216A7A0E226E440E236E00C01BF0E0
:1046000001C01CF002C01DF003C01EF07BEC24F0C2
:104610001B0E1BC0DBFF1C0E1CC0DBFF1D0E1DC0D4
:10462000DBFF1E0E1EC0DBFF1B0EDBCF1BF01C0EC4
:10463000DBCF1CF01D0EDBCF1DF01E0EDBCF1EF0FE
:10464000E8EC24F0070E1CC0DBFF080E1DC0DBFFEA
:10465000070EDBCF02F0080EDBCF03F0010EDB50BC
:10466000025C006E020EDB500358016E00C01CF0AD
:104670001D6E030EDBCF21F0040EDBCF22F063ECC6
:104680002EF0100E1CC0DBFF0F0EDBCFE6FFE66A3C
:1046900024DDE552E552DF6E100EDBCFE6FFE66E5D
:1046A0001CDDE552E552DF6EDF50006E290EE15C45
:1046B00002E2E16AE552E16E0050E552E7CFD9FF30
:0246C0001200E6
:0E46C200259E08D0259E1DAE05D01C6C1D1E29
:1046D000E86A1D22258E1DC017F01CC016F0296A3D
:1046E000286A8E0E186E196AD1EF25F0259E0CD01F
:1046F000259E1DAE09D01A6C1B1E1C1E1D1EE86ACD
:104700001B221C221D22258E1DC017F01CC016F076
:104710001BC029F01AC028F09E0E186E196AD1EF3E
:1047200025F0237E256A0DEC26F025EC26F025B633
:10473000B5EF25F025A20AD025AA03D025BEB5EFF6
:1047400025F025A4C1EF25F0BEEF25F025AA05D060
:1047500025ACC1EF25F0BEEF25F025A00AD025A895
:1047600008D025BE04D025A402D0CAEF25F0CEEF94
:1047700025F0286A196A23501E5C276E10E31BC0BF
:1047800029F01CC016F01DC017F01EC026F020C076
:104790001BF021C01CF022C01DF0253A09D020C01A
:1047A00029F021C016F022C017F023C026F0276C94
:1047B000259E25BC258E26C018F025B0FDEF25F0DE
:1047C0001A0E2760FDEF25F0186A1E6A25A408D08E
:1047D0001B6C1C1E1D1E1E1EE86A1C221D221E2292
:1047E00025AC08D0296C161E171E181EE86A162262
:1047F000172218221A6A275207E01E341D321C3273
:104800001B321A32272EF9D71B5029261C5016228C
:104810001D5017221E5018221AC028F0259E18AECF
:104820000BD0286C291E161E171E181EE86A292296
:10483000162217221822258E18A006D0D8801732EB
:10484000163229322832262A26C018F0D1EF25F058
:10485000256A0DEC26F025EC26F025B6B5EF25F0FF
:1048600025A205D025BAB5EF25F0BCEF25F025BA75
:10487000C8EF25F025A005D025B8B5EF25F0C8EF85
:1048800025F025B8BCEF25F0196A7F0E1E24186E9E
:10489000E86A19222350185EE86A195A1A0E266E21
:1048A0001E6A286A296A166A176A20501B5E215000
:1048B0001C5A22501D5A000E1E5A09E720501B2672
:1048C00021501C2222501D22000E1E2201D0288AB7
:1048D000D8901B361C361D361E36D8902836293601
:1048E00016361736262EE1D71D501C101B10D8A4E3
:1048F000288AD1EF25F0256A0DEC26F025EC26F06C
:1049000025B6B5EF25F025A205D025B8B5EF25F0E1
:10491000BCEF25F025AA05D025B0B5EF25F0BCEFFA
:1049200025F025B002D025A802D0C8EF25F0196ADD
:1049300023501E24186EE86A19227E0E185EE86A5B
:10494000195A286A296A166A176A22501D02F4CF7A
:1049500017F0F3CF16F021501D02F3502926F45022
:104960001622000E172222501C02F3502926F45062
:104970001622000E172220501D02F3502826F45054
:104980002922000E1622172221501C02F35028263D
:10499000F4502922000E1622172222501B02F35037
:1049A0002826F4502922000E1622172220501C021D
:1049B000F4502826000E29221622172221501B020D
:1049C000F4502826000E292216221722D1EF25F0B6
:1049D000256A0DEC26F025B6F2EF24F025A20ED0C4
:1049E00025B405D07F0E1D6EFF0E1C6E1FD0800EED
:1049F0001D6E1C6A1BD01D6A1C6A18D025B0FBD71F
:104A00008F0E1E60EDD77E0E1E64F5D78E0E1E5CD7
:104A100005E0D8901D321C321E2AF8D725A406D0F6
:104A20001C6C1D1EE86A1D221DAEE5D71200256A0A
:104A30000DEC26F025B621EF25F025A20FD025B4E8
:104A400007D07F0E1D6EFF0E1C6E1B6E1A6E25D0DA
:104A5000800E1D6E01D01D6A000EF6D725B0FBD763
:104A60001A6A9F0E1E60EBD77E0E1E64F4D79E0E50
:104A70001E5C07E0D8901D321C321B321A321E2AEF
:104A8000F6D725A40AD01A6C1B1E1C1E1D1EE86A30
:104A90001B221C221D221DAEDED7120060EC25F069
:104AA00025B6000C25B0000C25B4000C010C60EC00
:104AB00025F025B6000C25B0000C25A4000C010C37
:104AC000256A0DEC26F025EC26F025B6120025AE61
:104AD00008D025A004D025A802D02580120025905A
:104AE000120023501E5C0BE122501D5C08E1215096
:104AF0001C5C05E120501B5C02E125801200D8A05F
:104B000002D0258E10D01E5023C01EF0236E1D50E3
:104B100022C01DF0226E1C5021C01CF0216E1B50C3
:104B200020C01BF0206E23501E5C10E0FF0F09E038
:104B3000259025B403D025AE2584120025AE2594FA
:104B40001200232AD89022322132203220501B5EBC
:104B500021501C5A22501D5A1DBEEAD7D8901B3630
:104B60001C361D361E2EF8D7C8D77F0E1E6EFF0EC0
:104B70001D6E1C6E1B6E12007F0E25BEFF0E1E6E7C
:104B800002D07F0E1E6E800E1D6E1C6A1B6AF3D74C
:104B900025AE04D0800E1E6E1D6AF7D71E6A1D6AF0
:104BA000F4D71750161029102810F8E019BEF0D7C6
:104BB00017BE0CD018501910EBE0D89028362936C3
:104BC000163617361806D8A01906F2D71950D4E1B0
:104BD0001828D2E028AE11D07F0E281402E129A0B7
:104BE0000CD0292AE86A1622172207E3D880173248
:104BF00016322932182A1828BFE01850C9E029C0F7
:104C00001BF016C01CF017341D6E18301E6E1D32BE
:104C10001E9E25BE1E8EBBEF25F01D361E3602E3FE
:104C20002584257E06E125801E6A1D6A1C6A1B6A92
:104C300012001E2803E0D8801D321200D8901D32C9
:104C400002E125821200258612002236233602E375
:104C5000258C257E06E12588236A226A216A206A3E
:104C60001200232803E0D88022321200D89022328A
:104C7000EAE1258A12001DC029F01CC028F01C5052
:104C80002102F4CF1BF0F3CF1AF01D502202F4CF13
:104C90001DF0F3CF1CF02102F3501B26F4501C2210
:104CA000E86A1D2228502202F3501B26F4501C22D1
:104CB000E86A1D2222AE61EF26F028501C5E2950C2
:104CC0001D5A29AE000C21501C5E22501D5A000CAA
:104CD000DACFE4FFE2CFDAFFE9CFE4FFEACFE4FF87
:104CE000F6CFE4FFF7CFE4FFF5CFE4FFF3CFE4FF27
:104CF000F4CFE4FFFACFE4FF00EE16F0140EE80460
:104D000003E3EECFE4FFFBD700EE00F0160EE8045D
:104D100003E3EECFE4FFFBD7E652AEEC08F0F2A4DB
:104D20000BD0F294A60EE66E6D0EE66E14EC2EF02D
:104D3000E552E552BFEC15F0E55200EE15F0160E07
:104D4000E80403E3E5CFEDFFFBD700EE29F0140EF6
:104D5000E80403E3E5CFEDFFFBD7E5CFFAFFE5CFAE
:104D6000F4FFE5CFF3FFE5CFF5FFE5CFF7FFE5CFA4
:104D7000F6FFE5CFEAFFE5CFE9FFE5CFDAFF110067
:104D8000D8CFE4FFE0CFE4FFE46EDACFE4FFE652F1
:104D9000E552E5CFDAFFE550E5CFE0FFE5CFD8FFFC
:104DA000100004D8DCEC0AF04DD8FED70F0EC1126B
:104DB000800E9B6E700ED36E100ED26ED2AEFED7EA
:104DC000B50EE96E0F0EEA6E900EEF6E0F01010E3A
:104DD0005B6F5C6B5D6B5E6B5F6B02D822EF08F004
:104DE0008B949494929289820F0E8C169516F80EDD
:104DF0008D1696160F0E8916921695849586938AAF
:104E000092800F015B81C16ABE0EC06E010EC26E40
:104E1000C6EC29F0D8EC29F0AEEC29F0ECEC1DF052
:104E2000BCEC20F0EBEC1EF055EC11F09480938874
:104E3000E66A66EC11F0E55200019A6B9B6B9C6B85
:104E40009D6B1200200E0001E76E6019E8AE02D0E3
:104E5000E73402D0E750605D01E2F9D06050020B08
:104E600001E0120000019A519B1102E1000E08D0EE
:104E70009AC0E9FF9BC0EAFFEF50800B01E0010EF2
:104E8000000901E0E4D005010051370A01E184D0B6
:104E9000B40A4BE0010A3EE0030A15E0010A01E012
:104EA000C3D00501E45101E1BFD00501E30502E1F2
:104EB000020E07D0E35104E0020EE35D01E0B4D03E
:104EC000030EE36FB1D000019C519D1102E1000E71
:104ED00008D09CC0E9FF9DC0EAFFEF50800B01E0C5
:104EE000010E000901E0A0D00501810E406F05010F
:104EF000E30504E10501010E416F02D00501416B9C
:104F00000501E45104E00501010E426F7AD005016C
:104F1000426B77D00501E45102E0E66A02D0010E4F
:104F2000E66E66EC11F0E5527FD000019C519D11B8
:104F300002E1000E08D09CC0E9FF9DC0EAFFEF50DF
:104F4000800B01E0010E000927E10501830E406F8F
:104F5000100EE66EE66ACE0EE66E050EE66E410EA9
:104F6000E66E050EE66E79EC2AF0006E060EE15E46
:104F70000050400EE66E400EE66E050EE66E010E27
:104F8000E66EE66E98EC09F0006E050EE15E0050EC
:104F9000F3CF9CF0F4CF9DF000019C519D1102E1F4
:104FA000000E08D09CC0E9FF9DC0EAFFEF50800BC7
:104FB00001E0010E000938E10501370E406F100EC7
:104FC000E66EE66AAC0EE66E050EE66E410EE66E25
:104FD000050EE66E79EC2AF0006E060EE15E0050DA
:104FE000100EE66EE66ABD0EE66E050EE66E510E1A
:104FF000E66E050EE66E79EC2AF0006E060EE15EB6
:105000000050400EE66E400EE66E050EE66E010E96
:10501000E66EE66E98EC09F0006E050EE15E00505B
:10502000F3CF9CF0F4CF9DF0400EE66E000EE66EDE
:10503000050EE66EE66A010EE66E98EC09F0006E6B
:10504000050EE15E0050F3CF9AF0F4CF9BF0120012
:10505000120012001200120054EF2BF012001E0E6C
:10506000E66E010EE66E61EC09F0E552E552400E87
:10507000E66E000EE66E050EE66EE66A010EE66E60
:1050800098EC09F0006E050EE15E0050F3CF9AF047
:10509000F4CF9BF0120000017F0520E100018005A4
:1050A0001DE1A394D6DF60920001806B0501100E14
:1050B000FD6F0E0EFE6FFD07000EFE5BFD51FE1133
:1050C000FAE16084080EFD6F070EFE6FFD07000E0B
:1050D000FE5BFD51FE11FAE16094A3841200D9CF6A
:1050E000E6FFE1CFD9FFFD0EDBCF1CF0FE0EDBCFDC
:1050F0001DF0050E1C1801E11D5036E0E8681C1873
:1051000002E17F0E1D182FE0030E1C1801E11D5057
:1051100028E0020E1C1801E11D5021E0010E1C18B0
:1051200001E11D501AE0740E1C1801E11D5013E03E
:10513000750E1C1801E11D500CE0730E1C1801E1E6
:105140001D5005E0720E1C180FE11D500DD082DFBE
:105150000BD07EDF09D07DDF07D081DF05D07EDF79
:1051600003D07ADF01D077DF010EE552E7CFD9FF18
:0251700012002B
:0E517200D9CFE6FFE1CFD9FF020EE126DE6ABB
:10518000DD6ADECF00F0DDCF01F0FD0EDBCF02F0F7
:10519000FE0EDBCF03F001500318E8AE02D003345B
:1051A00004D00250005C035001580BE2DF2A010ECC
:1051B00001E3DB2ADF0601E2DB06DF2AE2E3DB2A8A
:1051C000E0D7020EE15C02E2E16AE552E16EE552EF
:1051D000E7CFD9FF1200320EE66EE66ACADFE5526B
:1051E000E5528D80320EE66EE66AC3DFE552E55287
:1051F0008D90320EE66EE66ABCDFE552E552120093
:10520000D9CFE6FFE1CFD9FF0F0E8C168D948D928A
:105210008C16FE0EDB50F00B8C12DDDFE552E7CF73
:10522000D9FF1200D9CFE6FFE1CFD9FF0F0E8C16C0
:105230008D948D928C16FE0EDB50F00B8C12CBDF12
:105240000F0E8C16FE0EDB38F00BF00B8C12C3DF4A
:10525000E552E7CFD9FF1200D9CFE6FFE1CFD9FF62
:105260000F0E8C168D948D928C16FE0EDB50F00B6B
:10527000F00B8C12B0DFE552E7CFD9FF1200D9CF87
:10528000E6FFE1CFD9FF0F0E8C168D848D928C1620
:10529000FE0EDB50F00B8C129EDF0F0E8C16FE0EF6
:1052A000DB38F00BF00B8C1296DFE552E7CFD9FF1D
:1052B0001200D9CFE6FFE1CFD9FF020EE126010EA1
:1052C000DB6AFE0EDB5004E0FD0EDB50C00F03D0A6
:1052D000FD0EDB50800FE66EA5DFE552FB0EDBCF47
:1052E000E9FFFC0EDBCFEAFFEF5016E0010EDB50CA
:1052F0000F0812E3FB0EDBCFE9FFDB2AFC0EDBCF4E
:10530000EAFF01E3DB2AEFCFDFFFDFCFE6FFB7DF06
:10531000E552010EDB2AE2D7020EE15C02E2E16A0D
:10532000E552E16EE552E7CFD9FF1200AC0EE66E12
:10533000050EE66EE66AE66ABCDFE552E552E55226
:10534000E552BD0EE66E050EE66EE66A010EE66EED
:10535000B0DFE552E552E552E5521200AC0EE66EC2
:10536000050EE66EE66AE66AA4DFE552E552E5520E
:10537000E552CE0EE66E050EE66EE66A010EE66EAC
:1053800098DFE552E552E552E55212000C0EBB6E75
:10539000BD6E640EBE6E0C0E976E010E906E060E04
:1053A000BA12F90E9416E00E7C6E100E7B6E12008F
:1053B0000F0E8C168D948D928D90D00EE66E070E8A
:1053C000E66ED7DEE552E552D00EE66E070EE66ECB
:1053D000D0DEE552E552D00EE66E070EE66EC9DE6F
:1053E000E552E552D00EE66E070EE66EC2DEE552DD
:1053F000E552D00EE66E070EE66EBBDEE552E552D4
:10540000D00EE66E070EE66EB4DEE552E552300EC3
:10541000E66E22DFE552D00EE66E070EE66EA9DEDE
:10542000E552E552300EE66E17DFE552E80EE66E05
:10543000030EE66E9EDEE552E552300EE66E0CDFA0
:10544000E552E80EE66E030EE66E93DEE552E55297
:10545000200EE66E01DFE552E80EE66E030EE66E04
:1054600088DEE552E552280EE66EDCDEE552640E7B
:10547000E66EE66A7EDEE552E552080EE66ED2DEA4
:10548000E552640EE66EE66A74DEE552E552010E00
:10549000E66EC8DEE552640EE66EE66A6ADEE55246
:1054A000E552020EE66EBEDEE552640EE66EE66A78
:1054B00060DEE552E5520F0EE66EB4DEE552640E94
:1054C000E66EE66A56DEE552E5521200D9CFE6FFF7
:1054D000E1CFD9FFFE0EDB5003E09292898202D029
:1054E00092928992FE0EDBCFE5F5E552E7CFD9FF28
:0254F0001200A8
:0E54F200D9CFE6FFDACFE6FFFA0EE3CFD9FFFF
:10550000FB0EE3CFDAFFFC0EE3CFE9FFFD0EE3CFA6
:10551000EAFFE9CFF3FFEACFF4FFF80EE35003E12F
:10552000F90EE35008E0F80EE30602E2F90EE30696
:10553000DECFEEFFF2D7FF0EE3CFDAFFE552FF0E2C
:10554000E3CFD9FFE5521200FE0EE3CFE9FFFF0ED5
:10555000E3CFEAFFE9CFF3FFEACFF4FFFB0EE3501E
:1055600003E1FC0EE35009E0FB0EE30602E2FC0E51
:10557000E306FD0EE350EE6EF1D71200FE0EE3CF10
:10558000E9FFFF0EE3CFEAFFF36AF46AEE5203E0AD
:10559000F34AF42AFBD71200FF0EE3CFF8FFE552DF
:1055A000FF0EE3CFF7FFE552FF0EE3CFF6FFE55224
:1055B000E66AE66AE66A0900F55209E0FD0EE32AAA
:1055C00005E1FE0EE32A02E1FF0EE32AF4D7FD0E09
:1055D000E3CF1BF0FE0EE3CF1CF0FF0EE3CF1DF078
:0255E0001200B7
:0E55E2001201000200000008D8043F00020081
:1055F0000102000109022900010100C03209040072
:10560000000203000000092111010001221C000713
:10561000058103400001070501034000010403095F
:105620000434034D006900630072006F006300687A
:105630000069007000200054006500630068006E7F
:10564000006F006C006F0067007900200049006E59
:105650000063002E002E03530069006D0070006C83
:105660000065002000480049004400200044006517
:105670000076006900630065002000440065006D4D
:10568000006F000600FF0901A10119012940150161
:105690002540750895408100190129409100C0F40A
:0756A000551D562156555619
:0856A800040120511F0B010851
:1056B00001E01200245101E01200060E215D1BE101
:1056C0002351230A18E0010A0CE0030A14E1000147
:1056D000610511E10001060E716F560E726F090E21
:1056E00006D00001830E716F560E726F1C0E746F20
:1056F000756BC00E736F04012051600BE842E842E5
:10570000E842E842E842010801E0120021510B0A98
:1057100026E0080A19E0090A11E0080A05E00B0A68
:1057200023E0080A21E012000001FB0E716F050E54
:10573000726F010E746F756BC10E0FD00001800E79
:10574000736F23C4FBF512000001FC0E716F050E90
:10575000726F010E746F756B810E736F1200000112
:0A576000800E736F22C4FCF51200E6
:06576A00D9CFE6FFDACF03
:10577000E6FFE1CFD9FFE2CFDAFFE652E652E6528A
:10578000E652D950F90F006EFF0EDA20016E020EBC
:1057900000C0DBFF030E01C0DBFF020EDBCFE6FF24
:1057A000030EDBCFE6FFF90EDBCFE6FFFA0EDBCF11
:1057B000E6FFFB0EDBCFE6FFD950FC0FE66EFF0ED7
:1057C000DA20E66EF1EC17F0006E070EE15C02E203
:1057D000E16AE552E16E0050F3CFDEFFF4CFDDFF6A
:1057E000FC0EDBCFE9FFFD0EDBCFEAFFEF6ADECF79
:1057F00000F0DDCF01F000C0F3FF01C0F4FF040EA4
:10580000E15C02E2E16AE552E16EE552E5CFDAFFE2
:06581000E7CFD9FF1200F2
:0A5816001E0EF66E100EF76E000E67
:10582000F86E00010900F550936F0900F550946F70
:1058300003E1936701D03DD00900F5508E6F090058
:10584000F5508F6F0900F550906F09000900F55071
:10585000E96E0900F550EA6E090009000900F550EB
:10586000916F0900F550926F09000900F6CF95F08D
:10587000F7CF96F0F8CF97F08EC0F6FF8FC0F7FF06
:1058800090C0F8FF0001915302E1925307E0090034
:10589000F550EE6E9107F8E29207F9D795C0F6FF42
:1058A00096C0F7FF97C0F8FF00019307000E945BC6
:0458B000BFD712004C
:0C58B40020202020202057680020202009
:1058C0002020202020202020202020202000202DEB
:1058D0002E2D2D2D5720202D2E2D2D2D57680020BB
:1058E00025735620202D2E2D2D2D2041002025738F
:1058F000572020257357680020257357202573579C
:10590000680020257357257357680025735720209A
:105910002573576800257357202573576800257332
:105920005725735768002025735620202573204182
:10593000002530316C752E25303375002530326CE2
:07594000752E2530337500C0
:08594800D9CFE6FFDACFE6FF3C
:10595000E1CFD9FFE2CFDAFFFB0EDBCF00F0FC0E88
:10596000DBCF01F00001800E01141AE1FB0EDBCF4A
:10597000E9FFFC0EDBCFEAFFEECFF3FFEDCFF4FF44
:10598000EE2A000EEF22F3CFE9FFF4CFEAFFFD0E7F
:10599000DBCFEFFFEF50016AF36E01C0F4FF10D0D0
:1059A000FB0EDB50FE0806E1FD0EDBCFE6FFBAEC96
:1059B0002EF005D0FD0EDBCFE6FF03EC08F0E5523C
:0C59C000E552E5CFDAFFE7CFD9FF120077
:0459CC00D9CFE6FF4A
:1059D000DACFE6FFE1CFD9FFE2CFDAFFFD0EDB50F1
:1059E000C96EC6AE02D0FF0E2BD00F0EC61408082B
:1059F0000FE00F0EC6140B080BE0C6889EA6FED75C
:105A0000C750040B03E1C750010B17E0000E18D07C
:105A10000F0EC614080804E00F0EC6140B0810E1A0
:105A2000C7B0FED7C750040B01E0010E006E1F0E79
:105A3000C5140010F7E1C5AC02D0FE0E01D0000E77
:0C5A4000E552E5CFDAFFE7CFD9FF1200F6
:045A4C00D9CFE6FFC9
:105A5000DACFE6FFE1CFD9FFE2CFDAFFAC6AAB6A7B
:105A6000FD0EDBB0AC88DBA202D0AC8CAB8CDBB41F
:105A7000AC8EDBA602D0AB8801D0AB8ADBB8AC849D
:105A8000DBBAAB86DBAC02D09D8A01D09D9ADBAE3F
:105A900002D09D8801D09D98FB0EDB50AF6EFC0EAE
:105AA000DBCF01F001C000F0016A0050B06EAC8A9B
:0E5AB000AB8EE552E5CFDAFFE7CFD9FF12004B
:025ABE001A507C
:105AC0001F02F3CF16F0F4CF17F02002F350172681
:105AD000000EF420186E1A502102F3501826000E02
:105AE000F420196E1A502202F35019261B501F027F
:105AF000F3501726F4501822000E19221B502002D2
:105B0000F3501826F45019221B502102F350192685
:105B10001C501F02F3501826F45019221C5020026A
:0E5B2000F35019261D501F02F35019261200D3
:025B2E00F29CE7
:105B3000F29E9F8ACC0EE66E8BEC2EF0E552670E3D
:105B4000E66EE66A5C0EE66E26EC2DF0E552E55256
:105B5000E552F28CF28CF28E1200410EE66E4CECA5
:105B60002EF0E552540EE66E4CEC2EF0E55212008B
:105B7000D9CFE6FFE1CFD9FFFD0EDBCFE6FFFE0E6A
:105B8000DBCFE6FFCAEC2DF0E552E552E552E7CF58
:045B9000D9FF120027
:0C5B9400D9CFE6FFDACFE6FFE1CFD9FF62
:105BA000E2CFDAFFACA2FED7FC0EDBCFE9FFFD0EA1
:105BB000DBCFEAFFEF50E66E4CEC2EF0E552FC0E28
:105BC000DBCFE9FFDB2AFD0EDBCFEAFF01E3DB2AB7
:105BD000EF50E8E1E552E5CFDAFFE7CFD9FF120059
:105BE000196A186A176A166A200EE76ED8901A3674
:105BF0001B361C361D3616361736183619361F500A
:105C0000165C20501758215018582250195809E393
:105C10001F50165E2050175A2150185A2250195AF8
:085C20001A2AE72EE4D7120056
:085C2800D9CFE6FFDACFE6FF59
:105C3000E1CFD9FFE2CFDAFFE652E652FC0EDBCF2E
:105C4000DEFFDBCFDDFF010EDB50D76EDF50D66EFF
:105C5000E552E552E552E5CFDAFFE7CFD9FF120072
:105C6000D9CFE6FFDACFE6FFE1CFD9FFE2CFDAFF07
:105C7000FD0EDB507F0BD56ED76AD66AF294FD0E0F
:105C8000DBAE02D0F28A01D0F29AD58EE552E5CF92
:085C9000DAFFE7CFD9FF120093
:085C9800D9CFE6FFDACFE6FFE9
:105CA000E1CFD9FFE2CFDAFFACAC04D0AC90050174
:105CB000FFB3AC80FD0EDB50AD6EE552E5CFDAFFF1
:065CC000E7CFD9FF12003E
:0A5CC600196A186A100EE76ED890F4
:105CD0001C361D36183619362150185C22501958BA
:105CE00005E32150185E2250195A1C2AE72EF0D7DE
:025CF0001200A0
:0E5CF200F36AF46AFF0EE124E96EFF0EE22071
:105D0000EA6EED6607D02F0EEF6404D03A0EEF6016
:065D100001D0F32A12008D
:0A5D1600D9CFE6FFDACFE6FFE1CFB8
:105D2000D9FFE2CFDAFFFD0EDB50B86EE552E5CFCA
:085D3000DAFFE7CFD9FF1200F2
:085D3800000EF36E00EE00F016
:105D4000080E01D81200EA6002D0EE6AFCD7F350C8
:085D5000E9601200EE6AFCD7C5
:085D580013EE00F023EE00F051
:105D6000F86A259C0BEC2CF00AEC08F0D1EC26F03C
:045D7000FBD712004B
:0C5D7400FF0EE350ACBA04D0AF6AAB8E57
:105D8000AC8A949CACA2FED7AD6EF36EF46A12009E
:105D90000F0EC614080804E00F0EC6140B0801E12C
:0A5DA000C586C7A0FED7C950120047
:065DAA00303132333435C4
:0B5DB0003637383961626364656600B5
:055DBB000000000000E3
:105DC00000010000000000000000000000000000D2
:075DD00000000000000000CC
:065DD700000000000000C6
:035DDD0020202063
:105DE00020204F44524F4944202020202000534D72
:105DF00041525420504F5745522056332E310053B4
:105E00004D41525420504F5745522056332E3100A9
:020000040030CA
:0100000021DE
:0100010008F6
:010002001FDE
:010003003EBE
:010005009169
:010006008178
:00000001FF
